:1000000000200020711B00009D1B00009D1B0000B4
:100010009D1B00009D1B00009D1B00009D1B000000
:100020009D1B00009D1B00009D1B00009D1B0000F0
:100030009D1B00009D1B00009D1B00009D1B0000E0
:10004000B10A0000291000009D1B00009D1B00004C
:100050009D1B00009D1B0000091000009D1B00005F
:100060009D1B00009D1B00009D1B00009D1B0000B0
:10007000AD1500009D1B00009D1B00009D1B000096
:100080009D1B00009D1B00009D1B00009D1B000090
:100090009D1B000010B5064C2378002B07D1054BA3
:1000A000002B02D0044800E000BF0123237010BDE4
:1000B0001801002000000000943F0000084B10B51C
:1000C000002B03D00749084800E000BF0748036839
:1000D000002B00D110BD064B002BFBD09847F9E751
:1000E000000000001C010020943F000014010020CB
:1000F00000000000164B002B00D1144B9D464022FF
:1001000092029A1A924600218B460F461348144ACF
:10011000121A02F025FB0F4B002B00D098470E4B14
:10012000002B00D098470020002104000D000D484E
:10013000002802D00C4800E000BF02F0CFFA2000F7
:10014000290000F03DF802F011F9C0460000080057
:1001500000200020000000000D1500001801002004
:10016000A8030020000000000000000000B583B0DC
:1001700001900A006B4603331A70019B00221A702B
:10018000019B5A783F218A435A70019B5A783F213C
:100190000A405A70019A6B4603331B785BB2190010
:1001A000100001F0F2FF019B180003B000BD82B007
:1001B00001900091009B180002B07047C046704744
:1001C00000B585B0134B00221A70134A6B4611001C
:1001D000180000F08AF86A46104B1100180001F070
:1001E0003BFF6B46180000F06FF800F02FF8094B4A
:1001F0001B7801225340DBB2002B08D000F012F82C
:100200000200074B1100180002F05AFBEFE7FFF75E
:10021000D5FFECE7780100206902000038010020DA
:10022000EC39000000B583B0064B9A68054B5B685B
:10023000D31A01930199044803F00EFA0300180041
:1002400003B000BD780100200087930310B5044B74
:10025000180001F027FF034B01221A70C04610BDA1
:10026000640100207801002010B5144B1B685A1C53
:10027000124B1A60124B1B7801225340DBB2002B49
:100280000FD0104B180001F03AFF0D4B01221A70ED
:100290000C4B180001F026FF03001A00084B5A60AF
:1002A0000AE0084B180001F01DFF03001A00044B80
:1002B0009A60034B00221A70C04610BD74010020E2
:1002C000780100206401002000B583B00190019BFB
:1002D000DB68002B05D0019BDB689B68019A10004E
:1002E0009847019B180003B000BD00B583B0019092
:1002F0000091009B002B03D1019B0022DA6005E0F6
:100300006A46019B1100180000F004F8019B1800D8
:1003100003B000BD00B583B001900091019B1900AE
:100320000420FFF744FF031E02D0009A12681A60EF
:10033000019B024ADA60C04603B000BDF8390000F4
:1003400000B583B00190019B1B68984703B000BDC6
:1003500000B583B001900091019B19000420FFF7C4
:1003600026FF031E02D0009A12681A60C04603B02E
:1003700000BD82B00190C04602B0704700B583B0A6
:1003800001900091019B012B17D1009B0C4A9342D5
:1003900013D10C4B55211800FFF7E8FE0A4B292119
:1003A000180001F0FFFD094A0949074B180001F048
:1003B000E7F8084B180001F0AFFEC04603B000BDDF
:1003C000FFFF0000340100203801002094000020CD
:1003D000451F00006401002010B5034B19000120E7
:1003E000FFF7CCFF10BDC046FFFF0000F0B50A4C80
:1003F000A368A5681A00002D09D11D00074A94358D
:10040000D61A1F68F7500433AB42FAD1A2601030FD
:1004100080008150F0BDC04600ED00E000000020EB
:100420000B4B0C4A70B5DD6BDA635A680A4A0B490C
:1004300080180022160081425641072031005C6876
:10044000844321435960954200D0DA6370BDC046B1
:1004500000000C40711B0000FFDB0BFFFF23F400CA
:1004600010B501F09DFBFFF7DBFF10BDE0228021FE
:10047000164BD2005B69890013408B4219D007D814
:10048000002B0DD080225200934219D0002008E0AA
:10049000C02189008B4205D09342F7D10C4800E07F
:1004A0000C4870470C4BDB6C1B0E122B0AD80B4808
:1004B000F7E7094BDB6C1B0E122B05D80848F0E759
:1004C0000848EEE70848ECE70848EAE700800C40F7
:1004D000406F4001809FD500B081E00F40420F0087
:1004E000C0CF6A00C0D8A700804F120040B564009A
:1004F000034B5A6DD20702D41A6D0242FCD17047E9
:1005000000800C4003000006000F013810B50C00FD
:1005100006281FD803F096F8041E1E131F2D3F0057
:10052000FFF79EFF254A26491368013CA4030B40B0
:100530001C43146001F096FBFFF772FF0AE008000D
:1005400003F000FA0F221D498B6893431032101AF2
:100550001843886010BDFFF783FF200003F0F2F915
:100560000F2216494B6893431032101A1843486003
:10057000E0E7144A9342EDD10420FFF7B9FF2000D1
:1005800003F0E0F90F220D498B6E93431032101ADD
:1005900018438866DEE70C4A9342DBD14020FFF720
:1005A000A7FF200003F0CEF9032204490B6F934309
:1005B0001C32101A18430867CCE7C04600800C4074
:1005C000FF3FFEFF600610007007160070B50500C3
:1005D0000005000F01380E00092815D803F032F885
:1005E0000515251414181B1E14220020104CED03B1
:1005F000ED0E002801D0FFF77BFF0122AA40AE409C
:10060000236893431E43266070BD0020094CEEE72B
:100610000120094CEBE71020084CE8E78020084C4B
:100620004000E4E70020074CE1E70020064CDEE74D
:1006300008800C4044800C4058800C4060800C4086
:1006400064800C4078800C4040800C400F231840A0
:10065000013800B5062805D802F0F4FF062033451E
:1006600004635100002000BD2F4B304ADB6A032099
:100670001340802252019342F5D006D880220130E7
:1006800012019342EFD00520EDE780220220920173
:100690009342E8D080220830D204F2E70321224AB4
:1006A000936A0B401800022BDDD006208B42DAD073
:1006B0000800012BD7D0936A0238DB03D3D50A3068
:1006C000D1E70C21184A0220936A0B40082BCAD0AC
:1006D00004308B42C7D00338042BC4D0936A02384D
:1006E000DB02ECD4BFE730200F4B9B6A03402D3870
:1006F000102BB8D0203B584258410130B3E7E020DE
:100700008022094BC002DB6A92020340032093421D
:10071000A9D080220630D2029342A4D0044A9B186A
:10072000E9E707209FE7C04600800C40003C00043A
:100730000000FFFF10B50400FFF788FF214A944234
:1007400010D0214B9C4212D0204B9C421DD1032043
:100750001F4B9B6A0340032B31D8180002F072FF35
:100760001F11171A1A4B9B6A1B079B0FF3E7184BB5
:100770009B6A9B069B0F022B09D0032B0AD0012BEF
:100780001DD101F08EFA030007E00300E3E701F05A
:100790008FFAF8E701F066FA4308180010BD0B481D
:1007A000844201D09442F8D1094A1021926A8442CD
:1007B00000D00431CA40F0D001F076FAE3E700231C
:1007C000EBE7C04603001C0004001E0002001A00F4
:1007D00000800C40F8239B031840E02310B51B0356
:1007E00098425AD01AD880239B02984246D003D808
:1007F000002810D0002043E08023DB02984235D04F
:10080000C0231B039842F5D12748FFF71FFF072895
:1008100043D00828EED101F0C7F931E0D0235B03C3
:1008200098422ED00ED880235B0398422DD0B0235F
:100830005B039842DED11D48FFF77CFF1C4B03226F
:100840001B6F18E0E0235B03984224D088239B03AE
:100850009842CFD11748FFF7F9FE032820D0082887
:10086000D9D00228C6D101F023FA09E001F09CF9A1
:100870000F4B9B680F221340D84001E001F0F2F9C2
:1008800010BD0D48FFF756FFFAE70B48FFF752FF80
:10089000074B9B6EEEE70548F4E7FFF7E7FDEFE750
:1008A00001F0FFF9ECE7C04606000C0003001C0055
:1008B00000800C400733220002001A0070B50528A2
:1008C00015D802F0BFFE1D190329152308200423A3
:1008D0000324144D002923D02B62002A05D00123C4
:1008E000A34011490A681A42FCD000F021F970BDFA
:1008F000202010230524ECE7802040230724E8E78C
:100900008020802380005B000924E2E78020802390
:100910000001DB001624DCE7012302201C00D8E7DD
:100920002862E2E700800C402C800C4070B50F2557
:100930000540681E0C0006281FD802F083FE042A1A
:100940002A641E1E8000881E082816D802F07AFE2F
:100950001E051619151515151C000120032401226A
:100960001100FFF7ABFFFFF77BFD4D4B5C6200F022
:10097000DFF801F077F9FFF753FD70BD02200400A6
:10098000EDE703200124EAE70520F8E7002004242E
:10099000E5E7481E0A28F0D802F04AFE2B131BEFA9
:1009A000EF23EFEFEFEF0600012200233C4CA16A9A
:1009B000022D21D13B480140194313040B43A3628C
:1009C000DBE7012200201100FFF778FF002202235D
:1009D000ECE7012211001000FFF770FF0022012355
:1009E000E4E70421304A13680B4313600022032319
:1009F000DCE700221300D9E712059B0013432B4AC2
:100A00000A401343DBE7022905D0032910D001294E
:100A1000B3D1002404E0012200201100FFF74EFFB3
:100A200030211F4A2401936A8B431C439462A4E73C
:100A3000012211001000FFF741FF0124F0E7032914
:100A400011D009291DD0022997D1012200201100BF
:100A5000FFF734FF4022124B5A6280225202D96AB9
:100A60001142FCD089E7012211001000FFF726FF98
:100A700060220B4B5A6280229202D96A1142FCD04A
:100A80007BE7012205201100FFF718FF8022044BAD
:100A90005A628022D202D96A1142FCD06DE7C04668
:100AA00000800C40FCFFFEFF40800C40F3FFEFFF96
:100AB0008023F0B51B4A1C4C5B01E358A25885B05B
:100AC0001A401600A36B012703931E4002230292D3
:100AD000019300251AE03E4216D03A00AA4013497D
:100AE000A36862502A019B18DA68002A0CD03B00E8
:100AF000117A4B4013721368002B05D0481E8141B8
:100B00005268C9B22800984776080135002EE2D114
:100B1000039B029E9E43019B013B0193002BD8D176
:100B200005B0F0BD0C10000000200C4008100000C3
:100B3000024BDA6A024B1A607047C04600800C40D4
:100B400084010020F7B508A90E7809A901930C7853
:100B5000072A21D8134D97000723BB40B8402968C6
:100B6000964099430843286001259540019BE9433D
:100B7000934094400C4F38680840184338600B4845
:100B800003680B4033430360094B1D62094B18682F
:100B9000014021431960F7BD1700083FBF00064D13
:100BA000DAE7C04600610040086100400C61004087
:100BB000FC6000401061004004610040F0B5002A74
:100BC00008D0242401254443194E8D40A419002B3C
:100BD0001BD0256124244443154D6419072916D8D8
:100BE0000F268F00BE406568B5431600BE403543F2
:100BF0006560002A08D1012424328C404243002B36
:100C000011D00B4BD2181461F0BD6561E2E70F27DC
:100C1000084EA5688E19B600B740BD431700B7400F
:100C20003D43A560E5E7024BD2185461ECE7C046AE
:100C300000600040F8FFFF3F036CDB0702D4436C09
:100C40001942FCD17047000070B505001400081E61
:100C500005D10A4B9D420FD10948FFF7BBFD21008A
:100C6000400102F0F9FC2038C40006480421044089
:100C70002800FFF7E1FFEC6070BDC046004008406F
:100C800070071600F87F0000CB430A225B00134078
:100C9000194370B50D0004000221FFF7CDFF656018
:100CA00070BD70B50D0002210400FFF7C5FF0A23D7
:100CB0006360666C002EFCD101232364697B2B7B6F
:100CC00022680B43A97B20000B431C218A4313435A
:100CD0002360AA686968FFF7B7FF2B786360266412
:100CE00070BD202382681A42FCD0C069C0B2704730
:100CF00070B5102304000D00A2681A42FCD04021F8
:100D00002000FFF799FFA56270BD30B513785478C5
:100D10009B062406234394790331234394780901E5
:100D200024042343D478240323431479A4022343C3
:100D3000547924022343D479651EAC4164052343CE
:100D4000147A651EAC4124051C43537A5D1EAB41E9
:100D50001B011C43937A5A1E93419B0023430B5063
:100D600030BD000070B50500160008001C00002909
:100D700002D11348FFF72EFD202C1CD003D81021E0
:100D8000002C05D070BD402C17D00421602CF9D167
:100D9000714380004B08C01802F05EFC6022094BD2
:100DA0000438800118402B6893432B602B681C4348
:100DB0002C606861E6E70821EAE70621E8E7C0461B
:100DC00040810400C0FF1F00CB430A225B00134098
:100DD000C360C160704700000D4B0E4AC360002322
:100DE000036042600C4A83604361C36482640B4ABF
:100DF0004365904202D00A49884200D10365836569
:100E0000904202D0064B984201D10023C36570473F
:100E1000AA0E000005100000F91F000000C00040ED
:100E200000C4004070B50C000500FFF7D5FFA37C9F
:100E3000002B04D080232A68DB0513432B60E37C5E
:100E4000002B03D01023227D1343AB65228A637BE2
:100E500028001343E289616813436B60237BA26817
:100E6000FFF780FF2378EB6070BD802302691A4290
:100E7000FCD0C069C0B27047402302691A42FCD05E
:100E80004163704703780F22002909D019091340E4
:100E90000E3A9A4024234B4306495B181A61704767
:100EA0001909134001229A4024234B4301495B183E
:100EB0005A61F4E70060004070B505000C004B1C5F
:100EC00004D143220649074801F0C6F9012106482A
:100ED000FFF77CFB01210548FFF778FB2C7070BD04
:100EE000043A0000553A00004081040000820400EA
:100EF000020070B500203F2453781056A3431BD145
:100F0000042900D103390F250124C3B21D40AC4090
:100F10001D0924236B430C4D5B19CE060AD51C61B9
:100F20003F240D0053782540A3432B43537000F01A
:100F3000F1F970BD5C61F3E7022903D01229EFD10A
:100F40000839EDE70721EBE70060004010B53F24CA
:100F500043788A01234013434370002902D00129BA
:100F600000D010BD0421FFF7C3FFFAE7F7B5050075
:100F70000124002D00D1F7BD2A000023224203D115
:100F800001335208202BF9D122009A409543194A87
:100F9000990088580028ECD0DEB217497208264222
:100FA00021D0072632408A5C1209242127004A43B7
:100FB00012499F4052181268114EDA40316922409E
:100FC00001920F4202D00221002A07D0F1688C461C
:100FD000624600213A4201D06A4611793362094BD8
:100FE0001B689847C5E7072632408A5C0F210A40F4
:100FF000DBE7C04688010020C80100201C600040DB
:10100000FC600040D0010020054B10B55A6998697A
:101010001040044A10401862FFF7A8FF10BDC046F8
:10102000FC600040AAAA0000054B10B55A699869F7
:101030001040044A10401862FFF798FF10BDC046E8
:10104000FC6000405555000070B504000D004B1CBD
:1010500004D154220449054801F0FEF8FC226378CB
:1010600025701340637070BD5F3A0000553A000070
:10107000F7B5050001921F00C026FFF7E5FF1949EB
:101080000620FFF7B3F94023174C7600A351174908
:1010900023600120FFF7AAF9002002232856A3515C
:1010A000C5B223600F242B00114A23409B009F50A0
:1010B0000207520F0F49EB070ED505008B5CA543C5
:1010C00023402B43DBB28B540B4B019A01211A6056
:1010D00000F020F90020FEBD8B5C2D09A3432B43BB
:1010E000F1E7C0460910000000E100E0291000000F
:1010F00088010020C8010020D00100200F210078C5
:10110000074B08400E3981405A6910B58A435A612D
:101110005B69002B02D1032000F01AFD10BDC04610
:10112000FC6000400F2270B50025037804001340D6
:10113000054A9B009D50FFF7E1FF00202900205643
:1011400000F0E8F870BDC04688010020F0B504004A
:1011500085B001292AD002292ED02000FFF7CEFF2A
:10116000627803251700164E0F2173692F400393F1
:10117000D307DB0F9C467B1E9F41207892070140DE
:10118000D20F00926346000901970A00FFF7DAFCCC
:101190007369002B08D063782B4205D0039B002B8A
:1011A00002D1280000F0C6FC05B0F0BD0A4063780B
:1011B0008B431A436270D0E701231A409A40F6E746
:1011C000FC6000401FB55521684600F0DEFF542149
:1011D00001A800F0DAFF542102A800F0D6FF552143
:1011E00003A800F0D2FF012421006846FFF74AFE61
:1011F00001A80021FFF746FE02A80021FFF742FEEA
:10120000210003A8FFF73EFE962001F0A2F86846F1
:101210000021FFF737FE210001A8FFF733FE210070
:1012200002A8FFF72FFE03A80021FFF72BFE962050
:1012300001F08FF8D8E7000070B50D000400A0B0F1
:1012400001F022F82A002100684601F0C9FB051EC2
:1012500003DC01F047F820B070BD094B094E1A6855
:10126000002A03D15221300000F022FB00246B46FB
:101270003000195D013400F043FCA542F7D1E8E7E6
:10128000F8020020400300200FB407B504A901C9EB
:101290000191FFF7D1FF03B008BC04B0184700006C
:1012A000134B10B51B681B0E812B07D8114A124B2C
:1012B00012491A60124A13680B401360042111206E
:1012C000FFF734FB0F4800F0DDFC01210E48FFF76B
:1012D0007DF902210D48FFF729FB8020000200F074
:1012E000EDFC012209210A4800F03AFF10BDC0467A
:1012F000FC81E00F0500000418600C40FFFFFFFEBA
:10130000E4800C4000366E010023020002001A0047
:101310003C03002070B505000C00431C04D12622BC
:101320000F49104800F098FF0F4E3368002B05D18D
:1013300001210E48FFF74AF90123336024230F22CD
:1013400029002809C5B26B43094D11405B191B6880
:101350000125CB4022402B40C0B2FFF72FFC70BDCF
:10136000BC3B0000553A0000D4010020008204007C
:101370000C6000400023CB565A1C01D1180002E03B
:10138000834201D1886870470C31F3E710B504003F
:10139000431C07D0FFF7EEFF0400431C02D10248B4
:1013A00000F0C2FF200010BD0B3C0000074B10B541
:1013B0001A68002A09D1064C5221200000F078FA60
:1013C000E1212000490200F01FFB10BDF8020020BF
:1013D00040030020030010B50020022B0ADD07495E
:1013E000033B9B005A585850824204D013681000A7
:1013F0005B68984710BD01204042FBE7D801002000
:1014000070B50C001500022810DC0F4B1B68002B78
:1014100001D1FFF7CBFF6619B44205D021780B4804
:1014200000F06EFB0134F7E7280070BD0338084B6D
:101430008000C058002803D003681B689847F4E771
:1014400001204042F1E7C046F8020020400300209E
:10145000D801002010B50C0002280BDC0C4B1B68D7
:10146000002B01D1FFF7A2FF0A4800F03BFB2070E0
:10147000012010BD0338084B8000C058002803D05D
:1014800003689B689847F4E701204042F1E7C046B3
:10149000F802002040030020D8010020030010B50E
:1014A0000120022B08DD033B054A9B0098580028C9
:1014B00003D00368DB68984710BD01204042FBE77A
:1014C000D8010020030010B50020022B08DD033BEB
:1014D00005489B001858002803D003681B699847EB
:1014E00010BD01204042FBE7D801002010B50228C2
:1014F00004D8802300209B014B6010BD00F030FF1A
:101500000923036001204042F7E7704710B5FFF759
:10151000C7FEFFF7FAFF10BD0C4910B50B6818188D
:10152000EFF30882904205D30C220120084B404281
:101530001A6010BD074A1468002C04D0064A1268CD
:1015400012199042F0D208601800F2E798000020CB
:10155000A4030020D8020020DC02002070B5074C54
:1015600005002368986800F0CDFF2368D86800F074
:10157000C9FF002D01D0FFF725FEFEE7A4000020E3
:10158000012070477047704710B5FFF7FBFF10BD93
:1015900010B5FFF7F8FF10BD10B5002801D001F01D
:1015A000C1F810BD10B5FFF7F7FF10BD01220A4BBF
:1015B00010B51969114204D008489A6102680132D5
:1015C00002600222114205D09A61054B1B68002B74
:1015D00000D0984710BDC04600000840E40200203B
:1015E000E0020020416803681D4A090293421BD1B2
:1015F000516509214156022301310BD0516D0B4336
:1016000053650823C356013308D00123516D0B43A2
:1016100053657047516D99435165F2E710230121DD
:101620005360536D8B43F3E75965092141560222FC
:1016300001310BD0596D0A435A65082141560122E8
:10164000013107D0596D0A435A65E2E7596D91435C
:101650005965F2E74021D960596D91435965D8E742
:1016600000400840084B984207D0084B984206D0EB
:10167000074B984205D1074800E0074870470748E4
:10168000FCE70748FAE7C04600C4004000400840B5
:1016900000C0004000320400004204007007160041
:1016A0004081040010B5002813DA03210F23C0B2D3
:1016B000034008408840FC318140083B0E4A9B08AB
:1016C0009B009B18DA698A43402181400A43DA6112
:1016D00010BD0321830808408840C024FC318140AC
:1016E000064A9B009B18A4001A598A434021814056
:1016F0000A431A51ECE7C04600ED00E000E100E0CB
:101700000B4A10B50023904208D00A4A0133904298
:1017100004D0094BC018434243415B00074A9B0079
:101720009858002802D0064B1B68984710BDC04649
:1017300000C0004000C4004000C0F7BFEC02002021
:10174000E802002010B50C4CA26BE36A1340CC22D7
:10175000134203D000212000FFF7D2FFA26BE36AFF
:1017600013402322134205D001210348FFF7C8FF8D
:101770000123636310BDC0460040084010B5044C0F
:1017800001212000FFF7BCFF0123A36410BDC04668
:1017900000C4004010B500210148FFF7B1FF10BDA3
:1017A00000C4004010B5044C01212000FFF7A8FF41
:1017B0000123A36410BDC04600C0004010B5002145
:1017C0000148FFF79DFF10BD00C00040F8B50D00B7
:1017D00004002A492800160000F006FD28490700E9
:1017E000300000F001FD0100380000F0DFFC0700D0
:1017F000431C05D1CD2223495200234800F02CFD83
:1018000027601E492800FFF7C1FD1D490700300071
:10181000FFF7BCFD0100380000F0C8FC6060431C0D
:1018200005D1A6221749FF32184800F015FD23689C
:10183000174A26726572934211D0164A934218D005
:10184000154A93420AD115491120FEF7CFFD122007
:101850001349FEF7CBFD1220FFF724FFF8BD114915
:101860000820FEF7C3FD09200F49FEF7BFFD092040
:10187000F2E70E490A20FEF7B9FDEFE7383B00001A
:10188000B43A0000C93C00001C3D00002D3D0000A2
:1018900000C400400040084000C00040BD170000E8
:1018A000A5170000951700007D17000045170000E0
:1018B000F0B5040087B0FFF789FF474D2368AB42BE
:1018C00007D101214548FEF781FE02214448FFF778
:1018D0002DF82068FFF7C6FE0121FEF777FE23688A
:1018E00069469C463F4BAC4560D16A46C1CBC1C2FC
:1018F0001B682800136000230B7080231B020193D8
:10190000FFF7CFF92000FFF76DFE23680122AB42FD
:101910005DD1C0236A632A689B0113432B60324B5D
:101920009C4207D10122314B21001A6020005F3216
:1019300000F00DFF08202056431C02D00121FFF7C4
:10194000E9FC09202056431C0DD00F230121C2B20F
:1019500016091A40914015337343254A9B181961A3
:101960000421FFF7D7FC20680521A84231D12800C7
:10197000FFF78AF922681F4900238A4208D01E49CE
:1019800001338A4204D01D4BD218534253415B00AD
:1019900000211B4A9B0099500122012352422374CB
:1019A0006261A2620534E37707B0F0BD6A46103386
:1019B000C1CBC1C2C1CBC1C200230B7096239B0116
:1019C0000293104B60460193FFF72CFA9AE79A6452
:1019D000A5E7FFF7F9F9CDE7004008400023020032
:1019E00003001C00283C000040030020F8020020F7
:1019F0000060004000C0004000C4004000C0F7BFCD
:101A0000EC02002000366E0170B5284B050000681E
:101A10000C00984243D1FF2912DC254A254926486B
:101A200000F01AFC02212548FEF780FF2868FFF726
:101A300019FE0121FEF766FD8021220009022AE03D
:101A40008023DB019942EDDD1D4B1E4ACB189342EA
:101A500004D91D4A17491D4800F0FEFB062117480E
:101A6000FEF764FF1A4B01269C4208DC194BB6199D
:101A70009C4204DC184B02369C4200DC0436286889
:101A8000FFF7F0FD3100FEF73DFD3100134801F096
:101A90006DFE220001002868FFF7D6F870BD0A002D
:101AA00000230F49FFF75EF9F8E7C0460040084001
:101AB000A2020000C93C0000503C000003001C00D2
:101AC00039D2FFFFB95F5B00BA020000763C00002C
:101AD000366E01001BB700008D5B0000001BB700D5
:101AE00000366E0110B5054B0068984202D1FFF731
:101AF000F8F810BDFFF7B9F9FBE7C0460040084011
:101B000010B50B4B04000068C9B2984207D1FFF72B
:101B1000EFF8082321688A681A42FCD010BDFFF74D
:101B2000ABF9202321680A691A42FCD0F6E7C046C7
:101B30000040084010B5040000F0A6FB034AA400D2
:101B4000A3580133A35000F0CDFB10BDFC020020D0
:101B500010B5040000F098FB044AA400A358002B21
:101B600001D0013BA35000F0BDFB10BDFC020020E2
:101B7000064880470649074A074B9B1A03DD043B8A
:101B8000C858D050FBDCFEF7B5FA0000A11C0000DD
:101B9000A03F00000000002018010020FEE7C04622
:101BA0000048704700366E01244A2549D36A10B5B3
:101BB0000B40802149018B423CD014D8802109017F
:101BC0008B4223D0E021D368C9000B4080218900DB
:101BD0008B4229D01CD8002B2AD00139FF398B42E7
:101BE00024D0002008E0802189018B420BD0802185
:101BF000C9048B42E6D113481168C903490F01316A
:101C000001F02AFD10BD104B1868F5E70F4BFBE7FC
:101C1000C02189008B4205D00131FF318B42E0D1D8
:101C20000B48E9E70B48E7E70B48E5E70B48E3E734
:101C30000B48E1E780200002DEE7C04600800C4050
:101C4000003C000400366E01A00000209C00002033
:101C5000406F4001809FD500C0D8A70040B5640008
:101C6000804F120010B5FFF79FFF0F22034B5B68F8
:101C70001340D840024B186010BDC04600800C4095
:101C8000A0030020044B10B51860044BDB6A1B0551
:101C900001D5FFF7E7FF10BD9C00002000800C403D
:101CA0007047802000027047FA20800070470000D3
:101CB000014B18687047C046A0000020044B10B5C7
:101CC0001860044BDB6A9B0401D5FFF7CBFF10BD06
:101CD000A000002000800C40114B10B51A69D207FB
:101CE0000DD5104A1168013111600F49097810684B
:101CF0000904814201D80021116001229A6110205B
:101D00001A69024207D0094A1168002904D01168F3
:101D100001391160986110BD00F040FAFBE7C04640
:101D200000040140100300201403002018030020C9
:101D3000F0B5284B85B01D78002D44D101212648EF
:101D40001970FEF743FC1823244C6562244D2B7058
:101D50002B78002B04D153222249234800F07CFA2F
:101D6000002301212A780A4201D10B2B2DD180209A
:101D700022681E491B060A4013432360297840024B
:101D8000C9B201F069FC1A4F01AE38600B22002184
:101D9000300000F0E5FC02233200B371012600217F
:101DA0000E48FEF7B2FFE36812493343E3600720B1
:101DB000FEF71CFB8022104B1A602A783B685343C5
:101DC000013BE361666005B0F0BD2A78013352083B
:101DD0002A70C7E72003002000120400000401401D
:101DE00014030020523D0000A43D0000FFFFFFF05F
:101DF0001C030020D91C000000E100E070B50F4B6F
:101E00001B78002B01D1FFF793FF01250C4E0D49E4
:101E100034680B69486A2B40E41833680A692A4021
:101E20009B189C42F4D1084B80B21978074BC9B279
:101E30001D6801F09BFC6C43001970BD200300205D
:101E40001003002000040140140300201C030020A4
:101E5000F7B52C4C0600E3680027DB0602D401200E
:101E6000FFF768FE1025E368AB43E360FFF7C6FFAA
:101E700000230200B61A9F4102204042C1173200DF
:101E80003B0080185941666A009001910198290031
:101E9000002803D11C48009F87420ED9A161626AC5
:101EA000E169033203238A4201D8636A033363631F
:101EB0001023E2681343E360F7BD144908780199E1
:101EC000C0B201F05DFD124F0904030C0B433B60EF
:101ED000A561E1690004020C019B91420FD8E569FC
:101EE00019002800121A8B413B68B61801333B6079
:101EF000E3699E4201D3E369F61A6663D8E7000CF2
:101F00008619F5E700040140FDFEFFFF14030020E1
:101F10001803002010B5064CE368DB0602D501204B
:101F2000FFF716FE1022E3689343E36010BDC0463E
:101F3000000401401022014B9A61704700040140E7
:101F40007047000010B50400074B083303600830E9
:101F5000FFF7E8F820001C30FEF7B6F920000C303F
:101F6000FEF7B2F9200010BDFC3D000010B50400E2
:101F7000FFF7E8FF2000FFF715FB200010BD000071
:101F800070B504000D00FEF79FF9002C02D0002D63
:101F900001D1E56070BD024B2560E360FAE7C04601
:101FA000F8390000134B70B50833040003600023B8
:101FB0000D00FC2103716371427A0F4E0A40836168
:101FC00083620372427231000C30FFF7D9FF2000A8
:101FD00031001C30FFF7D4FF200029002300074AFE
:101FE0000830FFF745F8201D290000F0B4F8200064
:101FF00070BDC046FC3D0000411F000029200000CC
:10200000C36810B50400002B05D1E8220449FF3253
:10201000044800F021F9E36820001B68984710BDD0
:10202000B83D0000F43D000010B5012902D002299E
:1020300004D010BD0C30FFF7E3FFFAE71C30FAE7DD
:10204000CB6870B504000D00002B01D05B68984789
:10205000EB682000E36070BDF8B504000F002500B8
:1020600000F012F9FE680C350834002E10D028005C
:10207000FEF72AF9002D03D039002800FFF7E0FF12
:10208000012211002000FFF761F800F02BF9F8BDE4
:1020900003492800FFF774FF32000121F2E7C04630
:1020A000411F000010B5040000F0EEF82368002B7B
:1020B00005D1E06800F0CAF801236060236000F0F9
:1020C00011F910BD70B5050000F0DEF82C68002C89
:1020D00004D0E86800F0BAF86C68041B00F002F95C
:1020E000200070BD70B5050000F0CEF82800AC6887
:1020F000FFF7E8FF241800F0F5F8200070BD10B5D8
:10210000040000F0C1F8E06800F0A0F8002360606F
:10211000A36000F0E7F810BD002310B50360436032
:102120008360040000F036F8E0602000FFF7E7FF6E
:10213000200010BD70B50D0004001600FEF7BCFEB7
:102140006B1C07D000212000FEF700FF31002000AB
:10215000FEF7CEFE70BD10B50422FFF7EBFF10BDF9
:1021600070B50D0004001600FEF7A6FE6B1C0BD028
:1021700031002000FEF786FE01212000FEF7E6FE7A
:1021800004212000FEF7B4FE70BD10B50022FFF759
:10219000E7FF10BD004870470C3E000010B5024834
:1021A00000F032F810BDC0460C3E000010B5884269
:1021B00008D0431C06D04B1C06D0044800F0B4F8ED
:1021C00001214942080010BD0100FBE7283E000044
:1021D0000023CB565A1C01D1180002E0834201D1E2
:1021E000486870470C31F3E710B50400431C07D072
:1021F000FFF7EEFF0400431C02D1024800F094F800
:10220000200010BD393E0000036870B5DB68040093
:10221000984763685A682368002A02D19B689847E8
:1022200070BD5B681568984763682D1A5A68002D61
:1022300007DC916859601B68002BEAD0506898470A
:10224000E7E7236810681B699847E9E710B503685A
:102250005B68984710BD000070B50D0016000400C3
:1022600000F012F833002A0021000348FFF70CF8B1
:10227000FEF7A8FF70BDC046593E0000EFF3108383
:10228000012098437047000070B5FFF7F7FF050085
:1022900072B60F4C2368002B04D1013343400D4A22
:1022A000DBB213702368013304D135220A490B488D
:1022B000FFF7D2FF2368002B06D0002D04D039226F
:1022C00005490748FFF7C8FF23680133236070BD45
:1022D000300300202C0300208A3E0000C03E000096
:1022E000E63E000010B50C4C2368002B13D0FFF71E
:1022F000C5FF002804D04A2208490948FFF7ACFF6F
:102300002368013B23602368002B04D1054B1B7815
:10231000002B00D162B610BD300300208A3E0000C1
:10232000E63E00002C0300200FB407B504A901C944
:102330000191FEF781FF012000F018F870B504004C
:10234000FFF75CFD0500FFF759FD401BA042FAD3E3
:1023500070BDFA2310B59B005843FFF7EFFF10BD87
:10236000014B18687047C046A4000020084B10B508
:102370000400002B02D0002100E000BF054B1868CC
:10238000836A002B00D098472000FFF7E7F8C0468B
:10239000000000005C3F0000F7B58A8905000C00D2
:1023A000130760D44B68002B04DC0B6C002B01DCA2
:1023B0000020FEBDE76A002FFAD000232E682B60B4
:1023C00080235B011A4034D0606DA3895B0706D57A
:1023D0006368C01A636B002B01D0236CC01A020023
:1023E000216A00232800E76AB847A189431C06D167
:1023F0002B681D2B31D82C4ADA40D3072DD500236A
:10240000636023692360CB0405D5431C02D12B688C
:10241000002B00D16065616B2E600029C8D02300BD
:102420004433994202D0280000F0A2F900206063F2
:10243000BFE70123216A2800B847431CC5D12B6898
:10244000002BC2D01D2B01D0162B01D12E60AFE77F
:102450004023A2891343A381ABE740230B43012010
:10246000A3814042A5E70F69002FA1D00B680F6040
:10247000DB1B01930023920700D14B69A360019BF2
:10248000002B00DC94E7019B3A00216A2800A66A31
:10249000B047002803DC4023A2891343DFE7019BF8
:1024A0003F181B1A0193EAE7010040200B6970B541
:1024B00005000C00002B01D1002070BD002804D0C5
:1024C0008369002B01D100F073F80B4B9C4209D1BA
:1024D0006C680C22A35E002BEED021002800FFF7D1
:1024E0005BFFEAE7054B9C4201D1AC68F1E7044B86
:1024F0009C42EED1EC68ECE71C3F00003C3F000042
:10250000FC3E000010B5011E05D1054B05491868B9
:1025100000F0C2F810BD044B1868FFF7C7FFF9E7D9
:102520005C3F0000AD240000A400002010B502496B
:1025300000F0B2F810BDC046AD240000002310B575
:10254000040003604360836081814366C28103614C
:1025500043618361190008225C3000F001F9054BEA
:1025600024626362044BA362044BE362044B236363
:1025700010BDC0461929000041290000792900003A
:10258000A529000070B568254A1E55430E00290094
:10259000743100F037F9041E08D000212A000160D0
:1025A00046600C30A060683200F0DAF8200070BDA0
:1025B000836913B50400002B28D18364C3640365C9
:1025C000134B144A1B6882620193984201D1012384
:1025D0008361200000F020F86060200000F01CF80B
:1025E000A060200000F018F80022E060042160687C
:1025F000FFF7A4FF01220921A068FFF79FFF022235
:102600001221E068FFF79AFF0123A36113BDC046C2
:102610005C3F00002D250000F8B51E4B07001E682A
:10262000B369002B02D13000FFF7C2FF4836B4680F
:102630007368013B04D53368002B07D03668F6E792
:102640000C22A55E002D0DD06834F2E7042138007D
:10265000FFF798FF30600028F0D10C2304003B60A6
:102660002000F8BD012320005B42E3810233A381F7
:1026700065662560A560656025616561A5610822C4
:1026800029005C3000F06CF86563A563A564E5641F
:10269000E6E7C0465C3F0000F7B5040007000026EF
:1026A00001914834002C01D13000FEBD6368A5685B
:1026B0000093009B013B009301D52468F2E7AB89AE
:1026C000012B08D90E22AB5E013304D0290038005B
:1026D000019B984706436835EBE7000070B500267C
:1026E0000C4D0D4C641BA410A64209D1002601F02C
:1026F00071F90A4D0A4C641BA410A64205D170BDA5
:10270000B300EB5898470136EEE7B300EB58984713
:102710000136F2E70801002008010020080100202E
:102720001001002010B5034B0100186800F020F8DC
:1027300010BDC046A4000020C9B28218904201D149
:102740000020704703788B42FBD00130F6E700236E
:1027500010B59A4200D110BDCC5CC4540133F8E7E7
:1027600003008218934200D1704719700133F9E7D2
:1027700070B50500002910D00C1F2368002B00DA6B
:10278000E4182800FEF700FF1D4A1368002B05D14E
:10279000636014602800FEF7FBFE70BDA34209D9F8
:1027A000216860188342F3D118685B684118216082
:1027B000EEE713005A68002A01D0A242F9D919683D
:1027C0005818A0420BD12068091858181960824285
:1027D000E0D110685268411819605A60DAE7A042E7
:1027E00002D90C232B60D5E721686018824203D1FF
:1027F000106852684118216062605C60CAE7C04698
:1028000034030020032370B5CD1C9D43083506001A
:102810000C2D1ED20C25A9421DD83000FEF7B4FEA7
:10282000254A14682100002919D1244C2368002B63
:1028300003D1300000F05EF820602900300000F085
:1028400059F8431C2CD10C2330003360FEF7A0FE56
:1028500003E0002DDFDA0C233360002070BD0B682D
:102860005B1B1AD40B2B03D90B60CC18256003E03B
:102870008C420ED1636813603000FEF789FE2000A1
:1028800007220B30231D9043C31AE7D05A42E2506F
:10289000E4E74B6863600C00EEE70C004968C2E7B0
:1028A0000323C41C9C43A042E0D0211A300000F056
:1028B00021F8431CDAD1C6E7340300203803002096
:1028C0000FB40B4B13B51C68002C05D0A369002B6B
:1028D00002D12000FFF76CFE05AB049AA16820002E
:1028E000019300F0BDFA16BC08BC04B01847C046FE
:1028F000A4000020002370B5064C050008002360EA
:10290000FEF70AFE431C03D12368002B00D02B6086
:1029100070BDC046A403002070B50C000E25495FB1
:1029200000F042FD002803DB636D1B18636570BD7A
:10293000A389024A1340A381F9E7C046FFEFFFFFD6
:10294000F8B51F008B8905000C001600DB0505D5C6
:102950000E23C95E0022022300F074F8A389054A01
:1029600028001340A38132000E23E15E3B0000F0FB
:1029700043F8F8BDFFEFFFFF70B50C000E25495F6F
:1029800000F060F8A389421C03D1054A1340A381DB
:1029900070BD802252011343A3816065F8E7C046F1
:1029A000FFEFFFFF10B50E23C95E00F039F810BD30
:1029B00030B59BB00091049108496D460291059194
:1029C000012182244942E981A4006946AC8100F0DA
:1029D0001BF90023009A13701BB030BDFFFFFF7F6F
:1029E00010B513000A00010002480068FFF7E0FF7D
:1029F00010BDC046A400002070B5050008001100FD
:102A00000022064C22601A00FEF7FAFC431C03D198
:102A10002368002B00D02B6070BDC046A4030020AB
:102A2000002370B5064C050008002360FEF7D2FCB9
:102A3000431C03D12368002B00D02B6070BDC0461F
:102A4000A403002070B50500080011000022064C08
:102A500022601A00FEF736FD431C03D12368002BC9
:102A600000D02B6070BDC046A403002070B50E00DE
:102A70001D000E23C95E90B01400002907DA002360
:102A80002B60B3891B0611D48023DB000FE001AA61
:102A900000F06AFD0028F2DBF022029B12021340D4
:102AA000054A9B185A4253412B60EDE74023002012
:102AB000236010B070BDC04600E0FFFFF7B50226EE
:102AC0008B8905000C00334206D023004733236076
:102AD000236101236361F7BD01AB6A46FFF7C6FFBF
:102AE000009907002800FFF78DFE002808D10C226E
:102AF000A35E9A05EFD4032293431E43A681E4E725
:102B00000F4BAB628023A28920601343A381009BFB
:102B100020616361019B002B0DD00E23E15E280034
:102B200000F034FD002806D00322A38993431A0045
:102B300001231343A381A0893843A081CBE7C0467A
:102B40002D250000F0B58E6885B007000C000392BB
:102B500001939E4239D890238A89DB001A4234D0EF
:102B60000325096923685B1A0293636902985D4330
:102B7000EB0F5D19019B6D1001331B18AB4200D99F
:102B80001D00530532D529003800FFF73BFE061E15
:102B900009D10C233B6040230120A289404213430A
:102BA000A38105B0F0BD029A2169FFF7D0FDA3898A
:102BB000144A1A4080231343A381029B2661F6180E
:102BC00026606561019EED1AA560019BB34200D2AB
:102BD0001E0032000399206800F0EAFCA368002080
:102BE0009B1BA36023689E192660DAE72A00380041
:102BF00000F0F0FC061EE0D121693800FFF7B8FDB7
:102C0000C7E7C0467FFBFFFFF0B59FB0029005937A
:102C10008B890F0016001B0611D50B69002B0ED1F6
:102C20004021FFF7EFFD38603861002805D10C2303
:102C3000029A013813601FB0F0BD40237B6100236E
:102C400006AD6B6120336B761033AB76340023789E
:102C5000002B47D1A31B04930DD0A31B32003900D6
:102C60000298FFF76FFF431C00D1B5E06A69049B2F
:102C7000944663446B612378002B00D1ACE00122C1
:102C8000002352426A6002A95432521801342B6068
:102C9000EB60AB601370AB65584E052221783000B5
:102CA000FFF74AFD621C002820D12968CB0604D515
:102CB000532302AE20309B1918700B0704D5532301
:102CC0002B2002AE9B19187023782A2B16D00020D7
:102CD0000A21099B2278303A092A55D9002815D0B3
:102CE000099313E0252BB5D00134B0E70123801BF5
:102CF0008340296814000B432B60CDE7059B181D0A
:102D00001B680590002B39DB0993140023782E2BC8
:102D10000BD16378621C2A2B3ED1059B02341A1D0D
:102D20001B680592002B34DB0793354E2178032274
:102D30003000FFF701FD002806D04023801B8340B0
:102D40002A68013413432B60217806222D48661C23
:102D50002976FFF7F1FC002846D02B4B002B2FD112
:102D60002968059B0722C90528D59B18934308337A
:102D700005936B69039A9B186B6167E75B42EB6095
:102D800002230B432B60C0E74B4301349B18012007
:102D9000A0E701235B42C7E7002314000A201A00C2
:102DA0006B6021783039092903D9002BBDD00792F7
:102DB000BBE74243013452180123F2E70733D5E75A
:102DC00005AB00933A00114B2900029800E000BFC8
:102DD0000390039B0133CCD1BB890B985B0600D4D5
:102DE00029E70120404226E705AB00933A00074B54
:102DF0002900029800F0BEF9EAE7C046603F0000F3
:102E0000663F00006A3F000000000000452B000004
:102E1000936810B5013B9360002B05DA9469A342D7
:102E200008DBCBB20A2B05D01368581C1060197050
:102E3000C8B210BD00F0CCFAFBE7F8B506000F00F1
:102E40001400D518AC4201D1002007E021783A00E7
:102E50003000FFF7DDFF0134431CF3D1F8BD000063
:102E6000F0B59FB006000F0014000593002804D0B1
:102E70008369002B01D1FFF79BFB7F4B9F425CD105
:102E80007768BB891B0762D53B69002B5FD00023A5
:102E900006AD6B6120336B761033AB760294029CE7
:102EA0002378002B5DD1029BE31A04930DD0049B81
:102EB000029A39003000FFF7C0FF431C00D1CCE07C
:102EC0006A69049B944663446B612378002B00D1AC
:102ED000C3E00122002352426A6002A95432521810
:102EE00001342B60EB60AB601370AB652178052279
:102EF0006248FFF721FC631C9C46002835D12968F5
:102F0000CB0604D5532302AA20309B1818700B0758
:102F100004D553232B2002AA9B18187023782A2B40
:102F20002CD000200A21099B2278303A092A00D8A7
:102F30006BE000282AD0099328E0514B9F4201D131
:102F4000B7689EE74F4B9F429BD1F76899E73900DE
:102F5000300000F093FA002899D0012040421FB0C1
:102F6000F0BD252B9FD001349AE7444B2968C01A45
:102F7000012383400B432B606446B7E7059B181D74
:102F80001B680590002B3ADB0993644623782E2BAF
:102F90000BD16378621C2A2B3FD1059B02341A1D8A
:102FA0001B680592002B35DB0793217803223648F6
:102FB000FFF7C2FB002807D0334B2A68C01A402312
:102FC000834013432B6001342178631C06222F4871
:102FD00002932976FFF7B0FB002844D02C4B002B3E
:102FE0002FD12968059B0722C90528D59B18934333
:102FF000083305936B69039A9B186B614FE75B423B
:10300000EB6002230B432B60BFE74B4301349B185B
:10301000012089E701235B42C6E7002314000A2050
:103020001A006B6021783039092903D9002BBCD0F4
:103030000792BAE74243013452180123F2E70733FB
:10304000D5E705AB00933A00124B2900300000E0B1
:1030500000BF0390039B0133CCD1BB895B0600D535
:103060007BE70B987BE705AB00933A00094B2900FF
:10307000300000F07FF8ECE71C3F0000603F0000EC
:103080003C3F0000FC3E0000663F00006A3F00003D
:10309000000000003B2E0000F7B5150001938A6880
:1030A0000B6900900C00934200DA130022002B60A1
:1030B00043321278002A01D001332B6023689B062B
:1030C00002D52B6802332B60062723681F4027D0C8
:1030D000230043331B785A1E93412268920630D452
:1030E0002200019943320098089EB047431C25D026
:1030F000062320682A68E16803400025042B03D1D9
:103100008D1AEB43DB171D40A3682269934201DD52
:103110009B1AED180027BD4220D1002010E0013796
:10312000E3682A689B1A9F42D2DA220001231932EF
:1031300001990098089EB047431CF0D101204042FD
:10314000FEBD3020E1184331087021005A1C453182
:103150000978A218433202331170C1E7220001231B
:103160001A3201990098089EB047431CE6D00137F7
:10317000D1E70000F0B58BB006920A004332079306
:10318000059004920A7E0C00109B6E2A00D18FE0FD
:1031900017D8632A2CD008D8002A00D199E0582AE1
:1031A00054D026004236327029E0642A01D0692AC0
:1031B000F7D121681A68080623D5111D1960156812
:1031C00025E0732A00D188E008D86F2A29D0702A18
:1031D000E7D1202209680A43226003E0752A20D043
:1031E000782ADED122007821453211706C4A30E015
:1031F0000E001A684236111D1960136833700123DE
:1032000079E04906D9D5111D19600023D55E002D3E
:1032100003DA2D23049A6D421370624B0A2703933D
:103220002FE020681968050603D5081D18600D6891
:1032300005E04006F9D50D68081D1860ADB2594B80
:10324000082703936F2A18D00A2716E045310A7021
:10325000544A03921A682168101D18601568080600
:1032600022D5CB0702D52023194321601027002D3A
:1032700003D1202322689A43226023000022433393
:103280001A706368A360002B5CDB04222168914301
:103290002160002D58D1049E002B64D02600039B92
:1032A00042361B7833705EE04806DAD5ADB2D8E717
:1032B00009681A68080605D5111D19601368626946
:1032C0001A6006E04906F7D5111D19601368A28A35
:1032D0001A800023049E236154E01A68111D1960AE
:1032E0001668002162683000FFF726FA002801D036
:1032F000801B6060636823610023049A137041E0BF
:103300002369320006990598079DA847431C43D0BE
:10331000236800259B070FD4099BE06898423DDA9B
:1033200018003BE022000123193206990598079EF8
:10333000B047431C30D00135E368099A9B1A9D427F
:10334000F0DBE9E7002DA9D0049E2800390000F049
:1033500009FA039B013E5B5C28003370390000F0E2
:103360007BF9051EF1D1082F09D12368DB0706D5AB
:1033700063682269934202DC3023013E3370049B70
:103380009B1B2361079B09AA00932100069B0598BC
:10339000FFF782FE431CB3D1012040420BB0F0BDC9
:1033A000823F0000713F000070B505000800110069
:1033B0000022064C22601A00FEF74CF8431C03D191
:1033C0002368002B00D02B6070BDC046A4030020F2
:1033D000F8B505000E001400002804D08369002B06
:1033E00001D1FFF7E5F8224B9C422DD16C68A3690F
:1033F000A360A3891B0731D52369002B2ED0236836
:103400002269F7B2981A6369F6B2984205DB210087
:103410002800FFF74BF8002826D1A3680130013BB4
:10342000A36023685A1C22601F706369984204D00D
:10343000A389DB071AD50A2E18D121002800FFF72F
:1034400035F8002812D00FE00A4B9C4201D1AC683D
:10345000CDE7094B9C42CAD1EC68C8E7210028009F
:1034600000F00CF80028CAD0012676423000F8BDE2
:103470001C3F00003C3F0000FC3E0000364B70B596
:103480001D6806000C00002D05D0AB69002B02D191
:103490002800FFF78DF8314B9C420FD16C680C234C
:1034A000E25E93B219072DD4D90611D40923012065
:1034B000336037331343A381404270BD284B9C4295
:1034C00001D1AC68EBE7274B9C42E8D1EC68E6E71A
:1034D0005B0713D5616B002908D023004433994260
:1034E00002D03000FFF744F9002363632422A3894C
:1034F0009343A38100236360236923600823A28987
:103500001343A3812369002B0BD1A0218022A3891F
:10351000890092000B40934203D021003000FFF756
:10352000CDFA0123A289134011D00023A36063695F
:103530005B42A361002023698342BED10C23E25E7B
:103540001306BAD540231343A3810138B5E7920788
:1035500000D46369A360EDE7A40000201C3F0000D5
:103560003C3F0000FC3E0000002370B5064C050007
:10357000080011002360FDF7B9FF431C03D1236845
:10358000002B00D02B6070BDA4030020002370B579
:10359000064C050008002360FDF780FF431C03D1A3
:1035A0002368002B00D02B6070BDC046A403002010
:1035B00010B5884202D98B18984208D300239A424A
:1035C00007D0CC5CC4540133F9E78B5C8354013AD7
:1035D000FBD210BDF8B507000D001600002905D17B
:1035E0001100FFF70FF904002000F8BD002A03D1F5
:1035F000FFF7BEF83400F7E700F012F82C0086421F
:10360000F2D931003800FFF7FDF8041EECD0290094
:103610003200FFF79CF829003800FFF7A9F8E3E72C
:103620000B1F1B68181F002B01DA0B58C0187047BE
:1036300002B4714649084900095649008E4402BC4B
:103640007047C04602B4714649084900095C490008
:103650008E4402BC7047C046002243088B4274D39C
:1036600003098B425FD3030A8B4244D3030B8B4283
:1036700028D3030C8B420DD3FF22090212BA030C8C
:103680008B4202D31212090265D0030B8B4219D36D
:1036900000E0090AC30B8B4201D3CB03C01A52418D
:1036A000830B8B4201D38B03C01A5241430B8B42D5
:1036B00001D34B03C01A5241030B8B4201D30B03BE
:1036C000C01A5241C30A8B4201D3CB02C01A5241E5
:1036D000830A8B4201D38B02C01A5241430A8B42A8
:1036E00001D34B02C01A5241030A8B4201D30B0291
:1036F000C01A5241CDD2C3098B4201D3CB01C01AAB
:10370000524183098B4201D38B01C01A52414309B4
:103710008B4201D34B01C01A524103098B4201D3A2
:103720000B01C01A5241C3088B4201D3CB00C01A0F
:10373000524183088B4201D38B00C01A5241430887
:103740008B4201D34B00C01A5241411A00D20146AC
:10375000524110467047FFE701B5002000F0F0F835
:1037600002BDC0460029F7D076E7704703460B43F9
:103770007FD4002243088B4274D303098B425FD36A
:10378000030A8B4244D3030B8B4228D3030C8B4296
:103790000DD3FF22090212BA030C8B4202D312127C
:1037A000090265D0030B8B4219D300E0090AC30B51
:1037B0008B4201D3CB03C01A5241830B8B4201D3FE
:1037C0008B03C01A5241430B8B4201D34B03C01AE7
:1037D0005241030B8B4201D30B03C01A5241C30A5F
:1037E0008B4201D3CB02C01A5241830A8B4201D3D0
:1037F0008B02C01A5241430A8B4201D34B02C01ABA
:103800005241030A8B4201D30B02C01A5241CDD25E
:10381000C3098B4201D3CB01C01A524183098B42A9
:1038200001D38B01C01A524143098B4201D34B0192
:10383000C01A524103098B4201D30B01C01A5241F5
:10384000C3088B4201D3CB00C01A524183088B427C
:1038500001D38B00C01A524143088B4201D34B0065
:10386000C01A5241411A00D20146524110467047D7
:103870005DE0CA0F00D04942031000D340425340DC
:1038800000229C4603098B422DD3030A8B4212D39C
:10389000FC22890112BA030A8B420CD389019211CE
:1038A0008B4208D3890192118B4204D389013AD00B
:1038B000921100E08909C3098B4201D3CB01C01AE0
:1038C000524183098B4201D38B01C01A52414309F3
:1038D0008B4201D34B01C01A524103098B4201D3E1
:1038E0000B01C01A5241C3088B4201D3CB00C01A4E
:1038F000524183088B4201D38B00C01A5241D9D266
:1039000043088B4201D34B00C01A5241411A00D2E6
:103910000146634652415B10104601D34042002BE2
:1039200000D54942704763465B1000D3404201B561
:10393000002000F005F802BD0029F8D016E7704716
:103940007047C0461C2101231B04984201D3000C80
:1039500010391B0A984201D3000A08391B09984202
:1039600001D30009043902A2105C40187047C04618
:103970000403020201010101000000000000000038
:10398000F0B5CE46474615042D0C2E0080B5070431
:10399000140C3F0C9946030C7E435D43674363431D
:1039A0007F19340CE4199C46A54203D980235B029D
:1039B0009846C4444B46514343433604360C250CC9
:1039C00024046544A4195918491920000CBC9046D8
:1039D0009946F0BDF8B5C046F8BC08BC9E46704795
:1039E000F8B5C046F8BC08BC9E46704752504D3AE8
:1039F0002025750D0A00000041030000510300005E
:103A000073030000433A5C55736572735C6F6E73A9
:103A10005C2E7673636F64655C6D6265642D6F7395
:103A20005C746172676574735C5441524745545FBE
:103A300053696C69636F6E5F4C6162735C54415291
:103A40004745545F45464D33325C6770696F5F612F
:103A500070692E630070696E20213D204E43004343
:103A60003A5C55736572735C6F6E735C2E7673632C
:103A70006F64655C6D6265642D6F735C7461726701
:103A80006574735C5441524745545F53696C696374
:103A90006F6E5F4C6162735C5441524745545F45A1
:103AA000464D33325C6770696F5F6972715F617038
:103AB000692E63004B00000000C0004000000000C1
:103AC0004C00000000C0004003000000180000008F
:103AD00000C00040040000002100000000C40040BD
:103AE000000000003600000000C400400300000099
:103AF0000000000000C40040040000003500000089
:103B000000400840000000001E0000000040084087
:103B100001000000510000000040084003000000C8
:103B20002F0000000040084005000000FF000000DA
:103B3000FFFFFFFFFFFFFFFF4A00000000C0004043
:103B4000000000004D00000000C000400300000025
:103B50001700000000C0004004000000200000002A
:103B600000C40040000000003700000000C4004016
:103B7000030000005200000000C4004004000000E8
:103B80003400000000400840000000001D0000005C
:103B900000400840010000005000000000400840C4
:103BA000030000002E000000004008400500000057
:103BB000FF000000FFFFFFFFFFFFFFFF433A5C55E0
:103BC000736572735C6F6E735C2E7673636F64657E
:103BD0005C6D6265642D6F735C746172676574738C
:103BE0005C5441524745545F53696C69636F6E5F23
:103BF0004C6162735C5441524745545F45464D33B6
:103C0000325C70696E6D61702E63006C6F636174FD
:103C1000696F6E206E6F7420666F756E6420666FBC
:103C2000722070696E0000000500000000000000B6
:103C300080250000000000000500000000000000DA
:103C400000C201000005000000100000000000009C
:103C50006261756472617465203E3D20284C455553
:103C60004152545F4C465F5245465F465245512093
:103C70003E3E2037290028626175647261746520B8
:103C80003C3D20284C45554152545F48465F5245C3
:103C9000465F46524551203E3E20312929202626A6
:103CA00020286261756472617465203E20284C454D
:103CB000554152545F48465F5245465F4652455112
:103CC000203E3E203130292900433A5C557365720D
:103CD000735C6F6E735C2E7673636F64655C6D628C
:103CE00065642D6F735C746172676574735C5441B5
:103CF000524745545F53696C69636F6E5F4C6162F4
:103D0000735C5441524745545F45464D33325C73B2
:103D1000657269616C5F6170692E630028696E74F9
:103D200029207561727420213D204E43006F626A24
:103D30002D3E73657269616C2E6C6F636174696F7F
:103D40006E20213D202875696E7433325F74294ED0
:103D50004300433A5C55736572735C6F6E735C2EFF
:103D60007673636F64655C6D6265642D6F735C74FC
:103D70006172676574735C5441524745545F53697F
:103D80006C69636F6E5F4C6162735C54415247456E
:103D9000545F45464D33325C75735F7469636B6580
:103DA000722E63007469636B65725F667265715F22
:103DB0006D687A203E203000433A2F557365727348
:103DC0002F6F6E732F2E7673636F64652F6D626530
:103DD000642D6F732F4255494C442F6D6265642FDB
:103DE000706C6174666F726D2F43616C6C6261639D
:103DF0006B2E68005F6F7073000000000000000011
:103E000000000000451F00006D1F0000143E000070
:103E100024030020311D0000FD1D0000151F0000BF
:103E2000351F0000511E000070696E6D6170206DBD
:103E300069732D6D617463680070696E6D617020C7
:103E40006E6F7420666F756E6420666F7220706589
:103E5000726970686572616C006D6265642061737F
:103E6000736572746174696F6E206661696C6564F4
:103E70003A2025732C2066696C653A2025732C2026
:103E80006C696E65202564200A00433A5C557365B1
:103E900072735C6F6E735C2E7673636F64655C6DBA
:103EA0006265642D6F735C706C6174666F726D5CBB
:103EB0006D6265645F637269746963616C2E63002F
:103EC000696E746572727570745F656E61626C653F
:103ED0005F636F756E746572203C2055494E543394
:103EE000325F4D415800696E7465727275707473FB
:103EF0005F64697361626C6564000000000000002B
:103F000000000000000000000000000000000000B1
:103F100000000000000000000000000000000000A1
:103F20000000000000000000000000000000000091
:103F30000000000000000000000000000000000081
:103F40000000000000000000000000000000000071
:103F5000000000000000000000000000A800002099
:103F6000232D302B2000686C4C0065666745464762
:103F700000303132333435363738394142434445E5
:103F80004600303132333435363738396162636454
:083F900065660000000000005E
:083F98005CC1FF7F0100000085
:103FA0000000000000000000000000000000000011
:103FB0000000000000000000000000000000000001
:103FC00000000000000000000000000000000000F1
:103FD00000000000000000000000000000000000E1
:103FE00000000000000000000000000000000000D1
:103FF00000000000000000000000000000000000C1
:1040000000000000000000000000000000000000B0
:1040100000000000000000000000000000000000A0
:104020000000000000000000000000000000000090
:104030000000000000000000A803002000366E0110
:1040400000800000A8000020000000001C3F0000CD
:104050003C3F0000FC3E00000000000000000000AB
:104060000000000000000000000000000000000050
:104070000000000000000000000000000000000040
:104080000000000000000000000000000000000030
:104090000000000000000000000000000000000020
:1040A0000000000000000000BD000000D903000077
:0840B000950000000000000073
:0400000300001B716D
:00000001FF
